:100000000C945D000C9485000C9485000C94850084
:100010000C9485000C9485000C9485000C9485004C
:100020000C9485000C9485000C9485000C9485003C
:100030000C9485000C9485000C9485000C9485002C
:100040000C944A050C9485000C9418050C94F20449
:100050000C9485000C9485000C9485000C9485000C
:100060000C9485000C94850000000008000201003B
:100070000003040700000000000000000000000072
:10008000250028002B0000000000240027002A0083
:10009000040404040404040402020202020203032E
:1000A0000303030301020408102040800102040836
:1000B0001020010204081020940511241FBECFEF68
:1000C000D8E0DEBFCDBF22E0A2E4B1E001C01D92C6
:1000D000A030B207E1F711E0A0E0B1E0EEEEFDE004
:1000E00002C005900D92A234B107D9F710E0CDE51A
:1000F000D0E004C02197FE010E94EF06CC35D10765
:10010000C9F70E94DE050C94F5060C94000090E0FF
:10011000FC01EC55FF4F249180579F4FFC018491C7
:10012000882399F090E0880F991FFC01EA57FF4F50
:10013000A591B491FC01E458FF4F859194918FB73C
:10014000F894EC91E22BEC938FBF0895DC01ED91D4
:10015000FC910190F081E02D0994AF92BF92CF9273
:10016000DF92EF92FF920F931F93CF93DF936C0177
:100170007B018B01040F151FEB015E01AE18BF0858
:10018000C017D10759F06991D601ED91FC9101900A
:10019000F081E02DC6010995892B79F7C501DF9122
:1001A000CF911F910F91FF90EF90DF90CF90BF9074
:1001B000AF900895FC01538D448D252F30E0842F9E
:1001C00090E0821B930B541710F0CF96089501977F
:1001D0000895FC01918D828D981761F0A28DAE0F6C
:1001E000BF2FB11D5D968C91928D9F5F9F73928FF3
:1001F00090E008958FEF9FEF0895FC01918D828D1F
:10020000981731F0828DE80FF11D858D90E00895EB
:100210008FEF9FEF08952FB7F89480914701909149
:100220004801A0914901B0914A012FBF8093530129
:1002300090935401A0935501B09356018BE491E043
:100240000E94FD0097FF26C02FB7F89480914701C8
:1002500090914801A0914901B0914A012FBF40916E
:100260005301509154016091550170915601841BC6
:10027000950BA60BB70B40914F0150915001609127
:1002800051017091520184179507A607B707B0F284
:100290008FEF9FEF0895CF92DF92EF92FF92CF936F
:1002A0000E940B01FC0197FD4EC08D32910521F09B
:1002B000C0970A9708F040C0C12CD12C7601C0E04D
:1002C000E130F105D1F0ED32F105D9F1CF01C09760
:1002D0000A9798F4AAE0B0E0A70196010E94B3063D
:1002E0006F01FF0FEE08FF08C60ED71EE81EF91EAD
:1002F00080E3C81AD108E108F1088BE491E00E947C
:10030000E9000E940B01FC01C0970A97C8F2E13096
:10031000F105B1F2CC2341F0F094E094D094C09474
:10032000C11CD11CE11CF11CC701B601CF91FF908B
:10033000EF90DF90CF9008958BE491E00E94E90068
:10034000AFCFC1E0DACFC12CD12C7601EDCFFC01CB
:10035000918D228D892F90E0805C9F4F821B9109A7
:100360008F73992708958BE491E00E94A70121E003
:10037000892B09F420E0822F089580E090E0892BFA
:1003800029F00E94B30181110C9400000895FC0132
:10039000A48DA80FB92FB11DA35ABF4F2C91848DE6
:1003A00090E001968F739927848FA689B7892C9343
:1003B000A089B1898C91837080648C93938D848D96
:1003C000981306C00288F389E02D80818F7D808399
:1003D0000895EF92FF920F931F93CF93DF93EC0159
:1003E00081E0888F9B8D8C8D98131AC0E889F989DC
:1003F000808185FF15C09FB7F894EE89FF896083DF
:10040000E889F98980818370806480839FBF81E05F
:1004100090E0DF91CF911F910F91FF90EF900895A1
:10042000F62E0B8D10E00F5F1F4F0F731127E02E7C
:100430008C8D8E110CC00FB607FCFACFE889F989B4
:10044000808185FFF5CFCE010E94C701F1CFEB8DF2
:10045000EC0FFD2FF11DE35AFF4FF0829FB7F89488
:100460000B8FEA89FB8980818062CFCFCF93DF93A6
:10047000EC01888D8823B9F0AA89BB89E889F989BC
:100480008C9185FD03C0808186FD0DC00FB607FCF1
:10049000F7CF8C9185FFF2CF808185FFEDCFCE0124
:1004A0000E94C701E9CFDF91CF91089590E0FC0150
:1004B000E859FF4F2491FC01EC55FF4F3491FC01AA
:1004C000E057FF4FE491EE23C9F0222339F02330A7
:1004D00001F1A8F4213019F1223029F1F0E0EE0FFA
:1004E000FF1FE458FF4FA591B4918FB7F894EC919A
:1004F000611126C030953E233C938FBF089527306D
:10050000A9F02830C9F0243049F7809180008F7D10
:1005100003C0809180008F7780938000DFCF84B507
:100520008F7784BDDBCF84B58F7DFBCF8091B0000A
:100530008F778093B000D2CF8091B0008F7DF9CFBC
:100540003E2BDACF3FB7F89480914301909144015C
:10055000A0914501B091460126B5A89B05C02F3F4B
:1005600019F00196A11DB11D3FBFBA2FA92F982FD9
:100570008827BC01CD01620F711D811D911D42E0D4
:10058000660F771F881F991F4A95D1F708958F929C
:100590009F92AF92BF92CF92DF92EF92FF920E9412
:1005A000A2024B015C0184E1C82ED12CE12CF12C7C
:1005B0000E94A202681979098A099B09683E734062
:1005C00081059105A8F321E0C21AD108E108F108DC
:1005D00088EE880E83E0981EA11CB11CC114D104C2
:1005E000E104F10429F7FF90EF90DF90CF90BF90E6
:1005F000AF909F908F900895089590E080E00895C7
:10060000CF93DF93EC0160E08E810E94560261E09F
:100610008E810E94560260E08E810E9456028BE815
:1006200091E00197F1F7DF91CF910895CF92DF929A
:10063000EF92FF920F931F93CF93DF936C017C0196
:1006400087E0E80EF11CD0E0C0E0062F10E0B80112
:100650000C2E02C0759567950A94E2F76170F70158
:1006600081917F010E9456022196C430D10579F70D
:10067000C601DF91CF911F910F91FF90EF90DF9016
:10068000CF900C940003CF92DF92EF92FF920F93E2
:100690001F93CF93DF93EC01F62E642F8C810E9481
:1006A00056028D818F3F19F060E00E9456020F2D97
:1006B00010E08F8584FF25C06E0187E0C80ED11C35
:1006C000F12CE12CB8010E2C02C0759567950A94A7
:1006D000E2F76170F60181916F010E945602FFEF0F
:1006E000EF1AFF0A88E0E816F10461F7CE01DF9106
:1006F000CF911F910F91FF90EF90DF90CF900C94CE
:100700000003B80184E0759567958A95E1F7CE01FD
:100710000E9416036F2DCE01DF91CF911F910F9193
:10072000FF90EF90DF90CF900C94160340E0682F7D
:1007300088EE91E00C94430381E00E9496038BE3E2
:100740009FE10197F1F70895CF93DF93823029F469
:100750009091F70198609093F7018093FB011092BC
:10076000FC0180E48093FD0180E18093FE0180E53F
:100770008093FF018091EC010E9487008091ED0140
:100780008F3F11F00E9487008091EE010E94870048
:10079000C8EED1E09E01285E31408091F70184FDD2
:1007A0000AC084E090E02196281739073CF48E8136
:1007B0000E948700EFCF88E090E0F5CF8BE39DE0CB
:1007C0000197F1F760E08091EC010E94560260E031
:1007D0008091EE010E9456028091ED018F3F19F049
:1007E00060E00E9456028091F70184FD34C063E00E
:1007F00088EE91E00E941603CBE4D6E4CE01019787
:10080000F1F763E088EE91E00E9416032197F1F77B
:1008100063E088EE91E00E94160383E592E0019781
:10082000F1F762E088EE91E00E9416038091F701F3
:1008300080620E94960384E08093F8018CE00E941D
:1008400096030E949C0382E08093F90186E0DF9189
:10085000CF910C94960380620E9496038BE496E4F9
:100860000197F1F78091F70180620E94960383E57A
:1008700092E00197F1F78091F70180620E94960360
:10088000D5CFE091FB01E23048F4E150F0E0E851CF
:10089000FE4F9489890F80680C949603E1E0F6CFAF
:1008A00041E00E94430381E090E008958F929F927F
:1008B000AF92BF92EF92FF920F931F93CF93DF936C
:1008C000CDB7DEB7A1970FB6F894DEBF0FBECDBF90
:1008D0007C01FA01CB0119A2223008F42AE08E0132
:1008E0000F5D1F4F822E912CB12CA12CBF01A501B1
:1008F00094010E94CD06F901CA016A3074F5605D69
:10090000D8016E938D01232B242B252B79F790E0B2
:1009100080E0109789F0FD0101900020E9F7319700
:10092000AF014A1B5B0BD701ED91FC910280F38173
:10093000E02DB801C7010995A1960FB6F894DEBF66
:100940000FBECDBFDF91CF911F910F91FF90EF9020
:10095000BF90AF909F908F900895695CD1CFCF9258
:10096000DF92EF92FF920F931F93CF93DF936B0170
:10097000770FEE08FF08F7FE1BC0EC016DE20E9446
:10098000A6008C0144275527BA014C195D096E0950
:100990007F092AE0CE010E945604800F911FDF914B
:1009A000CF911F910F91FF90EF90DF90CF9008951E
:1009B0002AE0B701A601DF91CF911F910F91FF901F
:1009C000EF90DF90CF900C945604FC010190002032
:1009D000E9F73197AF01481B590BBC0188EE91E054
:1009E0000C94AD001F920F920FB60F9211242F930B
:1009F0003F934F935F936F937F938F939F93AF93A7
:100A0000BF93EF93FF938BE491E00E94C701FF91A6
:100A1000EF91BF91AF919F918F917F916F915F9176
:100A20004F913F912F910F900FBE0F901F901895EF
:100A30001F920F920FB60F9211242F938F939F93B3
:100A4000EF93FF93E0915B01F0915C018081E09175
:100A50006101F091620182FD1BC09081809164016F
:100A60008F5F8F7320916501821741F0E0916401DF
:100A7000F0E0E55BFE4F958F80936401FF91EF916D
:100A80009F918F912F910F900FBE0F901F901895EF
:100A90008081F4CF1F920F920FB60F9211242F93E3
:100AA0003F938F939F93AF93BF9380914701909112
:100AB0004801A0914901B0914A013091420123E0DF
:100AC000230F2D3758F50196A11DB11D209342012A
:100AD0008093470190934801A0934901B0934A0144
:100AE0008091430190914401A0914501B09146014C
:100AF0000196A11DB11D8093430190934401A093E1
:100B00004501B0934601BF91AF919F918F913F9165
:100B10002F910F900FBE0F901F90189526E8230F6E
:100B20000296A11DB11DD2CFEBE4F1E01382128237
:100B300088EE93E0A0E0B0E084839583A683B7833A
:100B400084E091E09183808385EC90E095878487B1
:100B500084EC90E09787868780EC90E0918B808B87
:100B600081EC90E0938B828B82EC90E0958B848B70
:100B700086EC90E0978B868B118E128E138E148EDE
:100B8000E8EEF1E01382128286E191E091838083A6
:100B90008DE084838FEF85838CE086838BE0878371
:100BA0008AE0808789E0818788E0828713861486BF
:100BB00015861686178681E00C94A403789484B574
:100BC000826084BD84B5816084BD85B5826085BD49
:100BD00085B5816085BD80916E00816080936E00D7
:100BE00010928100809181008260809381008091C9
:100BF000810081608093810080918000816080937A
:100C000080008091B10084608093B1008091B00039
:100C100081608093B00080917A00846080937A0034
:100C200080917A00826080937A0080917A0081605E
:100C300080937A0080917A00806880937A00109285
:100C4000C100E0915B01F0915C0182E08083E09162
:100C50005701F09158011082E0915901F0915A0129
:100C60008FEC808310926301E0915F01F09160014D
:100C700086E08083E0915D01F0915E01808180617A
:100C80008083E0915D01F0915E01808188608083C6
:100C9000E0915D01F0915E01808180688083E09148
:100CA0005D01F0915E0180818F7D808382E00E94F2
:100CB000A403C0E0D0E08BE491E00E94A7011816E5
:100CC00019060CF040C08BE491E00E94E9008D30E1
:100CD000D1F50E944B014B018B010E944B016B012E
:100CE0006DE08BE491E00E94A600B4018BE491E0FA
:100CF0000E94AF046CE78BE491E00E94A600B6016D
:100D00008BE491E00E94AF046AE08BE491E00E94E2
:100D1000A6000130110511F50E949C038EE191E0BF
:100D20000E94E50480E00E9441048DE291E00E946F
:100D3000E50486E00E944104B60188EE91E00E943D
:100D4000AF040E94C702209709F4B5CF0E94B301F7
:100D5000882309F4B0CF0E940000ADCF0E949C030D
:100D600083E391E0DDCF0E94BE06A59F900DB49F66
:100D7000900DA49F800D911D11240895A29FB00194
:100D8000B39FC001A39F700D811D1124911DB29FBF
:100D9000700D811D1124911D0895A1E21A2EAA1B28
:100DA000BB1BFD010DC0AA1FBB1FEE1FFF1FA2171B
:100DB000B307E407F50720F0A21BB30BE40BF50B18
:100DC000661F771F881F991F1A9469F760957095A1
:100DD000809590959B01AC01BD01CF010895EE0F68
:0E0DE000FF1F0590F491E02D0994F894FFCFC9
:100DEE0000000000E901AD00DA003602A701E900BB
:100DFE00FD00000000005004AD00FD02FC026D6F0E
:100E0E0074696F6E206F6363757265640054454D2F
:100E1E00503A00206E6F206D6F74696F6E20202027
:020E2E000000C2
:00000001FF
