:100000000C9462000C948A000C948A000C948A0070
:100010000C948A000C948A000C948A000C948A0038
:100020000C948A000C948A000C948A000C948A0028
:100030000C948A000C948A000C948A000C948A0018
:100040000C94D4040C948A000C94A2040C947C04A8
:100050000C948A000C948A000C948A000C948A00F8
:100060000C948A000C948A000000000024002700F1
:100070002A0000000000250028002B0000000000DE
:1000800023002600290004040404040404040202DA
:100090000202020203030303030301020408102007
:1000A0004080010204081020010204081020000012
:1000B0000008000201000003040700000000000027
:1000C00000001E0511241FBECFEFD8E0DEBFCDBF5C
:1000D00011E0A0E0B1E0E2E7FDE002C005900D9282
:1000E000AA34B107D9F722E0AAE4B1E001C01D9219
:1000F000A830B207E1F710E0C2E6D0E004C02197D3
:10010000FE010E94B106C136D107C9F70E946805F9
:100110000C94B7060C940000DC01ED91FC91019069
:10012000F081E02D0994AF92BF92CF92DF92EF92CF
:10013000FF920F931F93CF93DF936C017B018B0191
:10014000040F151FEB015E01AE18BF08C017D107E1
:1001500059F06991D601ED91FC910190F081E02D6B
:10016000C6010995892B79F7C501DF91CF911F91C0
:100170000F91FF90EF90DF90CF90BF90AF900895D8
:10018000FC01538D448D252F30E0842F90E0821B9D
:10019000930B541710F0CF96089501970895FC0122
:1001A000918D828D981761F0A28DAE0FBF2FB11D7A
:1001B0005D968C91928D9F5F9F73928F90E00895D2
:1001C0008FEF9FEF0895FC01918D828D981731F08C
:1001D000828DE80FF11D858D90E008958FEF9FEFE0
:1001E0000895FC01918D228D892F90E0805C9F4FB6
:1001F000821B91098F739927089583E591E00E94EE
:10020000F10021E0892B09F420E0822F089580E09D
:1002100090E0892B29F00E94FD0081110C940000D0
:100220000895FC01A48DA80FB92FB11DA35ABF4F8B
:100230002C91848D90E001968F739927848FA689E5
:10024000B7892C93A089B1898C91837080648C9339
:10025000938D848D981306C00288F389E02D8081E8
:100260008F7D80830895EF92FF920F931F93CF931A
:10027000DF93EC0181E0888F9B8D8C8D98131AC0E1
:10028000E889F989808185FF15C09FB7F894EE89C8
:10029000FF896083E889F989808183708064808325
:1002A0009FBF81E090E0DF91CF911F910F91FF9070
:1002B000EF900895F62E0B8D10E00F5F1F4F0F7318
:1002C0001127E02E8C8D8E110CC00FB607FCFACFD3
:1002D000E889F989808185FFF5CFCE010E9411015F
:1002E000F1CFEB8DEC0FFD2FF11DE35AFF4FF082A4
:1002F0009FB7F8940B8FEA89FB8980818062CFCF0A
:10030000CF93DF93EC01888D8823B9F0AA89BB894C
:10031000E889F9898C9185FD03C0808186FD0DC037
:100320000FB607FCF7CF8C9185FFF2CF808185FF58
:10033000EDCFCE010E941101E9CFDF91CF91089559
:10034000833081F028F4813099F08230A9F008954B
:100350008730A9F08830C9F08430B1F480918000F2
:100360008F7D03C0809180008F77809380000895F7
:1003700084B58F7784BD089584B58F7DFBCF809140
:10038000B0008F778093B00008958091B0008F7D8A
:10039000F9CF1F93CF93DF93282F30E0F901E25577
:1003A000FF4F8491F901E656FF4FD491F901EA57C6
:1003B000FF4FC491CC23A9F0162F81110E94A001F8
:1003C000EC2FF0E0EE0FFF1FEE58FF4FA591B49118
:1003D0008FB7F894EC91111108C0D095DE23DC930F
:1003E0008FBFDF91CF911F910895DE2BF8CFCF9370
:1003F000DF9390E0FC01E656FF4F24918A579F4F10
:10040000FC0184918823D1F090E0880F991FFC01B2
:10041000E859FF4FA591B491FC01EE58FF4FC591EB
:10042000D49161110EC09FB7F8948C91E22FE095A2
:100430008E238C932881E223E8839FBFDF91CF91A5
:1004400008958FB7F894EC91E22BEC938FBFF6CF21
:100450003FB7F89480914F0190915001A0915101C4
:10046000B091520126B5A89B05C02F3F19F0019607
:10047000A11DB11D3FBFBA2FA92F982F8827BC01FE
:10048000CD01620F711D811D911D42E0660F771F26
:10049000881F991F4A95D1F708958F929F92AF9226
:1004A000BF92CF92DF92EF92FF920E9428024B01FF
:1004B0005C0184E1C82ED12CE12CF12C0E94280291
:1004C000681979098A099B09683E7340810591057D
:1004D000A8F321E0C21AD108E108F10888EE880EDD
:1004E00083E0981EA11CB11CC114D104E104F104E5
:1004F00029F7FF90EF90DF90CF90BF90AF909F9043
:100500008F900895089590E080E00895CF93DF9351
:10051000EC0160E08E810E94C90161E08E810E9441
:10052000C90160E08E810E94C9018BE891E00197CA
:10053000F1F7DF91CF910895CF92DF92EF92FF9282
:100540000F931F93CF93DF936C017C0187E0E80E3C
:10055000F11CD0E0C0E0062F10E0B8010C2E02C064
:10056000759567950A94E2F76170F70181917F01B3
:100570000E94C9012196C430D10579F7C601DF91E7
:10058000CF911F910F91FF90EF90DF90CF900C943F
:100590008602CF92DF92EF92FF920F931F93CF9339
:1005A000DF93EC01F62E642F8C810E94C9018D81AE
:1005B0008F3F19F060E00E94C9010F2D10E08F8578
:1005C00084FF25C06E0187E0C80ED11CF12CE12C00
:1005D000B8010E2C02C0759567950A94E2F7617018
:1005E000F60181916F010E94C901FFEFEF1AFF0A26
:1005F00088E0E816F10461F7CE01DF91CF911F91F9
:100600000F91FF90EF90DF90CF900C948602B8018D
:1006100084E0759567958A95E1F7CE010E949C026A
:100620006F2DCE01DF91CF911F910F91FF90EF9031
:10063000DF90CF900C949C0240E0682F80EF91E017
:100640000C94C90281E00E941C038BE39FE1019797
:10065000F1F70895CF93DF93823029F49091FF0151
:1006600098609093FF01809303021092040280E44B
:100670008093050280E18093060280E58093070263
:1006800061E08091F4010E94F7018091F5018F3FB4
:1006900019F061E00E94F70161E08091F6010E948B
:1006A000F701C0EFD1E09E01205F31408091FF0152
:1006B00084FD0BC084E090E021962817390744F4AC
:1006C00061E08E810E94F701EECF88E090E0F4CFE8
:1006D0008BE39DE00197F1F760E08091F4010E94C7
:1006E000C90160E08091F6010E94C9018091F50185
:1006F0008F3F19F060E00E94C9018091FF0184FDE5
:1007000034C063E080EF91E00E949C02CBE4D6E429
:10071000CE010197F1F763E080EF91E00E949C0227
:100720002197F1F763E080EF91E00E949C0283E55E
:1007300092E00197F1F762E080EF91E00E949C0265
:100740008091FF0180620E941C0384E0809300027C
:100750008CE00E941C030E94220382E0809301022D
:1007600086E0DF91CF910C941C0380620E941C03F1
:100770008BE496E40197F1F78091FF0180620E947B
:100780001C0383E592E00197F1F78091FF018062FD
:100790000E941C03D5CFE0910302E23048F4E150FF
:1007A000F0E0E051FE4F9489890F80680C941C039F
:1007B000E1E0F6CF41E00E94C90281E090E00895B7
:1007C0008F929F92AF92BF92EF92FF920F931F93DF
:1007D000CF93DF93CDB7DEB7A1970FB6F894DEBF06
:1007E0000FBECDBF7C01FA01CB0119A2223008F463
:1007F0002AE08E010F5D1F4F822E912CB12CA12C6F
:10080000BF01A50194010E948F06F901CA016A3057
:1008100074F5605DD8016E938D01232B242B252B5D
:1008200079F790E080E0109789F0FD0101900020B9
:10083000E9F73197AF014A1B5B0BD701ED91FC91B2
:100840000280F381E02DB801C7010995A1960FB68A
:10085000F894DEBF0FBECDBFDF91CF911F910F91F6
:10086000FF90EF90BF90AF909F908F900895695C3C
:10087000D1CFCF92DF92EF92FF920F931F93CF933E
:10088000DF936B01770FEE08FF08F7FE1BC0EC014A
:100890006DE20E948C008C0144275527BA014C1947
:1008A0005D096E097F092AE0CE010E94E003800FF6
:1008B000911FDF91CF911F910F91FF90EF90DF90EB
:1008C000CF9008952AE0B701A601DF91CF911F9143
:1008D0000F91FF90EF90DF90CF900C94E003FC011C
:1008E00001900020E9F73197AF01481B590BBC017B
:1008F00080EF91E00C9493001F920F920FB60F922D
:1009000011242F933F934F935F936F937F938F9314
:100910009F93AF93BF93EF93FF9383E591E00E9482
:100920001101FF91EF91BF91AF919F918F917F91B5
:100930006F915F914F913F912F910F900FBE0F904C
:100940001F9018951F920F920FB60F9211242F939C
:100950008F939F93EF93FF93E0916301F091640174
:100960008081E0916901F0916A0182FD1BC0908154
:1009700080916C018F5F8F7320916D01821741F020
:10098000E0916C01F0E0ED5AFE4F958F80936C0181
:10099000FF91EF919F918F912F910F900FBE0F902C
:1009A0001F9018958081F4CF1F920F920FB60F926F
:1009B00011242F933F938F939F93AF93BF93809175
:1009C0004B0190914C01A0914D01B0914E0130919D
:1009D0004A0123E0230F2D3758F50196A11DB11DC3
:1009E00020934A0180934B0190934C01A0934D01B9
:1009F000B0934E0180914F0190915001A09151010F
:100A0000B09152010196A11DB11D80934F019093A9
:100A10005001A0935101B0935201BF91AF919F91AA
:100A20008F913F912F910F900FBE0F901F901895AF
:100A300026E8230F0296A11DB11DD2CFE3E5F1E018
:100A40001382128288EE93E0A0E0B0E08483958365
:100A5000A683B78384E091E09183808385EC90E066
:100A60009587848784EC90E09787868780EC90E078
:100A7000918B808B81EC90E0938B828B82EC90E069
:100A8000958B848B86EC90E0978B868B118E128EE3
:100A9000138E148EE0EFF1E01382128286E191E072
:100AA000918380838DE084838FEF85838CE08683C0
:100AB0008BE087838AE0808789E0818788E082876E
:100AC0001386148615861686178681E00C942A03F1
:100AD000789484B5826084BD84B5816084BD85B519
:100AE000826085BD85B5816085BD80916E00816025
:100AF00080936E00109281008091810082608093CB
:100B000081008091810081608093810080918000CC
:100B10008160809380008091B10084608093B100F7
:100B20008091B00081608093B00080917A008460F1
:100B300080937A0080917A00826080937A0080911D
:100B40007A00816080937A0080917A008068809337
:100B50007A001092C10082E00E942A0360E087E0E0
:100B60000E94F701E0916301F091640182E08083CB
:100B7000E0915F01F09160011082E0916101F091DC
:100B800062018FEC808310926B01E0916701F0911C
:100B9000680186E08083E0916501F09166018081C3
:100BA00080618083E0916501F091660180818860B9
:100BB0008083E0916501F091660180818068808387
:100BC000E0916501F091660180818F7D8083C5EBA6
:100BD000D0E001EA10E04DE8E42E40E0F42E50E4CD
:100BE000A52E60E0C62E60E0D62EFE018491F801AD
:100BF000B490F7019490992009F46BC081110E9480
:100C0000A001E92DF0E0EE0FFF1FE458FF4FA59182
:100C1000B4918C91B82231E020E009F430E0832FC8
:100C2000922FA0927C0020917A00206420937A0079
:100C300020917A0026FDFCCF2091780080907900E9
:100C4000982C822E97FE03C0FFEF8F1A9F0A95946F
:100C50008794019709F040C00E9422038EE191E041
:100C60000E946F0480E00E94CB038DE291E00E941D
:100C70006F0486E00E94CB03B40180EF91E00E94F4
:100C800039046DE083E591E00E948C0061E070E042
:100C900083E591E00E9439046CE783E591E00E94CE
:100CA0008C00B40183E591E00E9439046AE083E599
:100CB00091E00E948C000E944D02C114D10409F4FD
:100CC00094CF0E94FD00882309F48FCF0E9400007A
:100CD0008CCF90E080E0A5CF0E94220383E391E0D7
:100CE0000E946F040E9422038DE391E00E946F0432
:100CF00080E00E94CB038DE291E00E946F0486E0C9
:100D00000E94CB03B40180EF91E00E9439046DE0B2
:100D100083E591E00E948C0070E060E0B9CFA1E231
:100D20001A2EAA1BBB1BFD010DC0AA1FBB1FEE1F65
:100D3000FF1FA217B307E407F50720F0A21BB30BB0
:100D4000E40BF50B661F771F881F991F1A9469F72C
:100D500060957095809590959B01AC01BD01CF0188
:100D60000895EE0FFF1F0590F491E02D0994F8947B
:020D7000FFCFB3
:100D72000000000033019300C0008001F100CF00A9
:100D8200E30000000000DA039300830282024D6F49
:100D920074696F6E204F6363757265640054454DCC
:100DA200503A00206E6F206669726520004E6F20F7
:0A0DB2004D6F74696F6E2020200061
:00000001FF
